:040000004FEF02F0CC
:08000800046ED8CF05F0E0CF33
:1000100006F00001E9CF0CF0EACF07F0E1CF08F0DD
:10002000E2CF09F0D9CF0AF0DACF0BF0F3CF12F01C
:10003000F4CF13F0FACF14F0F5CF15F0F6CF16F099
:10004000F7CF17F000C00EF001C00FF002C010F0A3
:1000500003C011F09DAA30EF00F09EBA57EF00F0F8
:100060000EC000F00FC001F010C002F011C003F08C
:100070000CC0E9FF07C0EAFF078E08C0E1FF09C016
:10008000E2FF0AC0D9FF0BC0DAFF12C0F3FF13C0B2
:10009000F4FF14C0FAFF15C0F5FF16C0F6FF17C035
:1000A000F7FF045006C0E0FF05C0D8FF1000248011
:1000B0009EAAFED7AECF21F09EAAFED7AECF22F0E9
:1000C0009E9A30EF00F0EA6A460EE96EEF500DE0BE
:1000D000060E016E006A002EFED7012EFBD77B0EA6
:1000E000006E002EFED7EF2EF3D712004C50016A9F
:1000F0004B5C03E24BC000F00CD0006A080E4D6E62
:100100004B3600364C50005CD8B0006E01364D2E98
:10011000F7D7120045C04BF00A0E4C6EE7DF00C067
:1001200046F045C04BF00A0E4C6EE0DF01C047F0D0
:10013000486A4550090804E3956A45C08CFF08D019
:100140004750100DF3504624486E956A48C08CFF06
:10015000120020501F5C05E394968B7694908B9050
:1001600004D094908B8094968B96B6EF02F026C0C4
:10017000EAFF25C0E9FF4BC0EFFFE92AD8B4EA2A1D
:10018000EF6A252AD8B4262A1200200E46A8300E7F
:10019000476E45C000F045AE08D0001E002A00C0E2
:1001A00045F02D0E476E468E4680015045C04BF0FF
:1001B000640E4C6E9BDF00C045F0300E0124486E8B
:1001C00045C04BF00A0E4C6E91DF300E00244A6E93
:1001D000300E0124496E47C000F0300E485C04E048
:1001E000468246BE468412D047C048F0200E476E75
:1001F000300E495C04E0468046BE468207D0D8A453
:10020000468004E148C049F0200E486E46B405D04F
:1002100046B206D046B007D009D047C04BF0A7DFA2
:1002200048C04BF0A4DF49C04BF0A1DF4AC04BF0FF
:100230009EDF120046C04AF045C049F04AC003F0B4
:1002400049C0E9FF4AC0EAFFEF5204E0492AD8B4A6
:100250004A2AF4D748C003F047C0E9FF48C0EAFF84
:10026000EF5213E047C0E9FF48C0EAFFEFCF4DF07F
:100270004AC0EAFF49C0E9FF4DC0EFFF492AD8B4A0
:100280004A2A472AD8B4482AE5D749C0E9FF4AC0D4
:10029000EAFFEF6A45C001F046C002F01200EF52DB
:1002A00010E0EACF46F0E9CF45F0EF509EA8FED728
:1002B000AD6E46C0EAFF45C0E9FFE92AD8B4EA2A94
:1002C000EED713EF03F0006A016A4C50D8904DB09E
:1002D0000026003201324DB20026003201324DB408
:1002E0000026003201324DB60026003201324DB8F0
:1002F0000026003201324DBA0026003201324DBCD8
:100300000026003201324DBE002600320132EFEFEE
:1003100001F04A6A486A0A0E496E476A455046101B
:1003200003E1000E016EB9D04A504A2A4524E96E15
:10033000000E4620EA6EEFCF4BF04B502D080CE13B
:10034000010E486E4A504A2A4524E96E000E4620A6
:10035000EA6EEFCF4BF00CD04B502B0809E14A501E
:100360004A2A4524E96E000E4620EA6EEFCF4BF094
:100370004B502F08D8B089D04B503908D8A085D021
:100380004B5030081EE14A504524E96E000E4620CD
:10039000EA6EEF50780809E04A504524E96E000EF5
:1003A0004620EA6EEF5058080CE1100E496E4A2ABA
:1003B0004A504A2A4524E96E000E4620EA6EEFCFE5
:1003C0004BF049500A081AE14B502F0816E24B50E7
:1003D000390813E30A0E4C6E47C04DF074D7300E47
:1003E0004B5C0124476E4A504A2A4524E96E000EB0
:1003F0004620EA6EEFCF4BF0E7D747D049501008C0
:1004000044E14B50600806E24B507A0803E34B503E
:10041000DF0B01D04B504B6E4B502F0803E24B507B
:10042000390806E24B50400830E24B5046082DE3B5
:100430004B502F080CE24B50390809E347384C6EFB
:10044000F00E4C16300E4B5C4C24476E09D04738EA
:100450004C6EF00E4C16410E4B5C0A0F4C24476E4E
:100460004A504A2A4524E96E000E4620EA6EEFCF34
:100470004BF04B50600806E24B507A0803E34B50B8
:10048000DF0B01D04B504B6EC7D7482C04D04950DE
:100490000A0801E1476C47C001F01EEF03F0F86A5B
:1004A000D09E078E810EAF6EA60EAC6E900EAB6E18
:1004B0001F6A030E206E2490266A256AC180C182BD
:1004C000C184C196070EB46E196A1A6AD26AC180D5
:1004D000C182C184C196C290C66AD190850ECD6E8C
:1004E000070EB46E9550956E9650966E100E006E77
:1004F000002EFED70000B450A19CB56AD36A000E4E
:10050000956E9D8AC00EF21294908B8094968B9675
:10051000938281A213D0938481B410D01F505E08BF
:100520000DE3010E1F26040E456EFA0E466ECBDD5E
:10053000452EFBD71FC045F0EDDD14D0938481A478
:1005400011D0938281B20ED01F520CE0010E1F5EBB
:100550001FC045F0DFDD040E456EFA0E466EB3DDBA
:10056000452EFBD71FC045F0D5DDF3D5640E466E92
:10057000AADD2F0E3B6E3C6A2050090823E3266A51
:10058000310E256E300E4B6EF2DD20C045F0180E98
:10059000466EFBDD1F5009080CE3266A270E256E08
:1005A000300E4B6EE4DD1FC045F0180E466EEDDDDB
:1005B00008D0266A270E256E1FC045F0180E466E1D
:1005C000E4DD1FD0266A310E256E20C045F0180EDE
:1005D000466EDBDD1F5009080CE3266A270E256EE8
:1005E000300E4B6EC4DD1FC045F0180E466ECDDDDB
:1005F00008D0266A270E256E1FC045F0180E466EDD
:10060000C4DD466A310E456E486A3B0E476E12DE07
:10061000466A310E456E486A270E476E0BDEEA6A5F
:10062000310EE96E3CD6200E9EA8FED7AD6E24A0FA
:1006300007D02490466A210E456E6BD601C020F08B
:0406400067D7030075
:020000040030CA
:0E00000000220E0E000081000FC00FE00F4026
:00000001FF
;PIC18F458
;CRC=B57A  CREATED="13-mai-21 18:26"
